:020000040800F2
:10000000000003206D310008392F0008472F000839
:100010004F2F0008572F00085F2F00080000000036
:10002000000000000000000000000000672F000832
:10003000752F000800000000832F0008912F000892
:10004000C1310008C1310008C13100089D2F0008EE
:10005000C1310008C13100082B30000839300008D8
:10006000C1310008C13100081D300008C13100084D
:10007000C1310008C1310008A92F0008C1310008B2
:10008000C1310008C1310008C1310008C131000888
:10009000C1310008C1310008C1310008C131000878
:1000A000C1310008C1310008C1310008C131000868
:1000B000C1310008C1310008C1310008C131000858
:1000C000C1310008C1310008C1310008C131000848
:1000D000BD2F0008D12F0008C1310008C131000830
:1000E000C1310008C1310008C1310008C131000828
:1000F000E52F0008F12F0008FD2F0008C13100088E
:10010000C1310008C1310008C1310008C131000807
:10011000C1310008C1310008C1310008C1310008F7
:10012000C1310008C131000809300008C1310008A0
:0C013000C1310008C1310008C1310008D5
:1001400010B5054C237833B9044B13B10448AFF311
:1001500000800123237010BDF0000020000000008B
:10016000C4FC000808B5034B1BB103490348AFF3B7
:10017000008008BD00000000F4000020C4FC00085E
:1001800010F8012B11F8013B012A28BF9A42F7D041
:10019000D01A7047034613F8012B002AFBD1181A16
:1001A000013870470000000000000000000000005F
:1001B00001F0FF01102A2BDB10F0070F08D010F818
:1001C000013B013A8B422DD010F0070F42B3F6D11C
:1001D000F0B441EA012141EA014122F007047FF035
:1001E00000070023F0E80256083C85EA010586EA8C
:1001F000010685FA47F5A3FA87F586FA47F6A5FAC8
:1002000087F68EB9EED1F0BC01F0FF0102F00702D3
:1002100032B110F8013B013A83EA010313B1F8D17E
:100220000020704701387047002D06BF354603385F
:10023000073815F0010F07D1013015F4807F02BF98
:10024000013015F4C03F0130F0BC0138704700BFE9
:1002500070B54FF0FF0C4CF4E06C1CEA11541DBF5C
:100260001CEA135594EA0C0F95EA0C0F00F0DEF827
:100270002C4481EA030621EA4C5123EA4C5350EA0C
:10028000013518BF52EA033541F4801143F480135D
:1002900038D0A0FB02CE4FF00005E1FB02E506F0EE
:1002A0000042E0FB03E54FF00006E1FB03569CF043
:1002B000000F18BF4EF0010EA4F1FF04B6F5007F49
:1002C00064F5407404D25FEA4E0E6D4146EB0606BB
:1002D00042EAC62141EA55514FEAC52040EA5E5044
:1002E0004FEACE2EB4F1FD0C88BFBCF5E06F1ED8EE
:1002F000BEF1004F08BF5FEA500E50F1000041EB25
:10030000045170BD06F0004646EA010140EA0200D1
:1003100081EA0301B4EB5C04C2BFD4EB0C0541EAF3
:10032000045170BD41F480114FF0000E013C00F308
:10033000AB8014F1360FDEBF002001F0004170BD2C
:10034000C4F10004203C35DA0C341BDC04F1140445
:10035000C4F1200500FA05F320FA04F001FA05F2D1
:1003600040EA020001F0004221F0004110EBD3709E
:1003700021FA04F642EB06015EEA430E08BF20EACA
:10038000D37070BDC4F10C04C4F1200500FA04F36D
:1003900020FA05F001FA04F240EA020001F00041FF
:1003A00010EBD37041F100015EEA430E08BF20EA72
:1003B000D37070BDC4F1200500FA05F24EEA020EBA
:1003C00020FA04F301FA05F243EA020321FA04F0E9
:1003D00001F0004121FA04F220EA020000EBD370A0
:1003E0005EEA430E08BF20EAD37070BD94F0000FA0
:1003F0000FD101F00046400041EB010111F4801FD4
:1004000008BF013CF7D041EA060195F0000F18BF84
:10041000704703F00046520043EB030313F4801FC0
:1004200008BF013DF7D043EA0603704794EA0C0F7A
:100430000CEA135518BF95EA0C0F0CD050EA410690
:1004400018BF52EA4306D1D181EA030101F000410D
:100450004FF0000070BD50EA410606BF1046194635
:1004600052EA430619D094EA0C0F02D150EA013641
:1004700013D195EA0C0F05D152EA03361CBF104682
:1004800019460AD181EA030101F0004141F0FE4121
:1004900041F470014FF0000070BD41F0FE4141F4A5
:1004A000780170BD81F0004102E000BF83F000439D
:1004B00030B54FEA41044FEA430594EA050F08BFFF
:1004C00090EA020F1FBF54EA000C55EA020C7FEAC3
:1004D000645C7FEA655C00F0E2804FEA5454D4EB40
:1004E0005555B8BF6D420CDD2C4480EA020281EA0A
:1004F000030382EA000083EA010180EA020281EA42
:100500000303362D88BF30BD11F0004F4FEA013193
:100510004FF4801C4CEA113102D0404261EB4101A2
:1005200013F0004F4FEA03334CEA133302D0524228
:1005300063EB430394EA050F00F0A780A4F10104E4
:10054000D5F1200E0DDB02FA0EFC22FA05F280181E
:1005500041F1000103FA0EF2801843FA05F3594104
:100560000EE0A5F120050EF1200E012A03FA0EFC83
:1005700028BF4CF0020C43FA05F3C01851EBE371AD
:1005800001F0004507D54FF0000EDCF1000C7EEBCA
:1005900000006EEB0101B1F5801F1BD3B1F5001F08
:1005A0000CD349085FEA30004FEA3C0C04F1010427
:1005B0004FEA445212F5800F80F09A80BCF1004F50
:1005C00008BF5FEA500C50F1000041EB045141EAD2
:1005D000050130BD5FEA4C0C404141EB0101013C9B
:1005E00028BFB1F5801FE9D291F0000F04BF01468A
:1005F0000020B1FA81F308BF2033A3F10B03B3F15C
:1006000020020CDA0C3208DD02F1140CC2F10C02EB
:1006100001FA0CF021FA02F10CE002F11402D8BF49
:10062000C2F1200C01FA02F120FA0CFCDCBF41EA15
:100630000C019040E41AA2BF01EB0451294330BDE4
:100640006FEA04041F3C1CDA0C340EDC04F11404C1
:10065000C4F1200220FA04F001FA02F340EA030098
:1006600021FA04F345EA030130BDC4F10C04C4F1DE
:10067000200220FA02F001FA04F340EA03002946BE
:1006800030BD21FA04F0294630BD94F0000F83F408
:10069000801306BF81F480110134013D4EE77FEAEB
:1006A000645C18BF7FEA655C29D094EA050F08BF37
:1006B00090EA020F05D054EA000C04BF1946104618
:1006C00030BD91EA030F1EBF0021002030BD5FEA5C
:1006D000545C05D14000494128BF41F0004130BD84
:1006E00014F580043CBF01F5801130BD01F00045D8
:1006F00045F0FE4141F470014FF0000030BD7FEA4B
:10070000645C1ABF194610467FEA655C1CBF0B4645
:10071000024650EA013406BF52EA033591EA030F5C
:1007200041F4002130BD00BF90F0000F04BF002154
:10073000704730B54FF4806404F132044FF0000587
:100740004FF0000150E700BF90F0000F04BF002100
:10075000704730B54FF4806404F1320410F0004566
:1007600048BF40424FF000013EE700BF42004FEA61
:10077000E2014FEA31014FEA02701FBF12F07F43DE
:1007800093F07F4F81F06051704732F07F4208BF95
:10079000704793F07F4F04BF41F40021704730B59C
:1007A0004FF4607401F0004521F000411CE700BFE8
:1007B00050EA010208BF704730B54FF000050AE06B
:1007C00050EA010208BF704730B511F0004502D56C
:1007D000404261EB41014FF4806404F132045FEA6E
:1007E000915C3FF4D8AE4FF003025FEADC0C18BF17
:1007F00003325FEADC0C18BF033202EBDC02C2F109
:10080000200300FA03FC20FA02F001FA03FE40EA9A
:100810000E0021FA02F11444BDE600BF4FEA410286
:10082000B2F1E04324BFB3F5001CDCF1FE5C0DD94E
:1008300001F0004C4FEAC0024CEA5070B2F1004F98
:1008400040EB830008BF20F00100704711F0804F9B
:1008500021D113F13872BCBF01F00040704741F460
:1008600080114FEA5252C2F11802C2F1200C10FA64
:100870000CF320FA02F018BF40F001004FEAC12348
:100880004FEAD32303FA0CFC40EA0C0023FA02F3EC
:100890004FEA4303CCE77FEA625307D150EA0133C2
:1008A0001EBF4FF0FE4040F44000704701F0004092
:1008B00040F0FE4040F40000704700BF53B94AB911
:1008C000002908BF00281CBF4FF0FF314FF0FF3058
:1008D00000F088B9ADF1080C6DE904CE00F006F81F
:1008E000DDF804E0DDE9022304B070472DE9F047AC
:1008F000089D0F4604468C46002B48D18A42164676
:1009000061D9B2FA82F34BB1C3F1200201FA03FCC0
:1009100020FA02F29E4042EA0C0C9C404FEA164E2E
:10092000B7B2BCFBFEF1220C0EFB11CC42EA0C422A
:1009300001FB07F0904209D9B21801F1FF3C80F0A9
:10094000EE80904240F2EB8002393244121AA4B297
:10095000B2FBFEF00EFB102244EA024400FB07F754
:10096000A74209D9341900F1FF3280F0DA80A7429A
:1009700040F2D7803444023840EA0140E41B0021B1
:100980001DB1DC400023C5E90043BDE8F0878B4280
:1009900006D90DB1C5E9000100210846BDE8F08780
:1009A000B3FA83F1002948D1BB4202D3824200F25C
:1009B0000781841A67EB030201209446002DE4D0DE
:1009C000C5E9004CE1E7002A00F09280B2FA82F318
:1009D000002B40F0A8808A1A4FEA164E1FFA86FCB8
:1009E0000121200CB2FBFEF70EFB172240EA024267
:1009F0000CFB07F0904207D9B21807F1FF3802D27A
:100A0000904200F2E2804746121AA4B2B2FBFEF016
:100A10000EFB102244EA02440CFB00FCA44507D95B
:100A2000341900F1FF3202D2A44500F2CB80104607
:100A3000A4EB0C0440EA0740A2E7C1F120068B407A
:100A400022FA06FC4CEA030C07FA01F420FA06F33A
:100A5000F7404FEA1C49234300FA01F81FFA8CFEC5
:100A6000B7FBF9F01C0C09FB107744EA074400FBC4
:100A70000EF7A74202FA01F20AD91CEB040400F1B6
:100A8000FF3A80F09B80A74240F29880023864448D
:100A9000E41B9FB2B4FBF9F309FB134447EA044497
:100AA00003FB0EFEA64509D91CEB040403F1FF3736
:100AB00080F08280A6457FD9023B644443EA00402F
:100AC000A4EB0E04A0FB02E7BC427346B94663D315
:100AD00060D05DB1B8EB030264EB090404FA06F6DA
:100AE00022FA01F31E43CC40C5E9006400214CE723
:100AF0006208480842EAC1710B0C43EA00438AB21B
:100B000042EA0342B3FBF6F1E407B4463746B64681
:100B10001F23B0FBF6F0D21B41EA004161E76146BA
:100B200014E7104628E7C3F1200120FA01F29E40A5
:100B300027FA01F19F403A434FEA164E1FFA86FC0E
:100B4000B1FBFEF70EFB1710110C41EA004107FB49
:100B50000CF8884504FA03F43AD9711807F1FF300C
:100B600001D288451FD8A1EB0801B1FBFEF808FBB4
:100B70000CF70EFB181192B242EA0142BA422FD290
:100B8000B21808F1FF31C6D2BA42C4D2A8F10201AC
:100B90003244C0E7F0459CD2BEEB020367EB0C0782
:100BA0000138B94695E7A6EB08084144B81EB1FBE9
:100BB000FEF808FB0CF7DCE73B467FE7504667E7AB
:100BC0000846FBE63444023832E7023F32441BE772
:100BD000A1EB08013846B1FBFEF808FB0CF7C8E7AB
:100BE000414698E7704700BF80B483B000AF78609B
:100BF000064BD3F8902005497B681343C1F8903029
:100C000000BF0C37BD465DF8047B704700080058F4
:100C100080B485B000AF78604FF0B043DA6C4FF02D
:100C2000B0417B681343CB644FF0B043DA6C7B6810
:100C30001340FB60FB6800BF1437BD465DF8047BC2
:100C4000704780B485B000AF78604FF0B043D3F800
:100C50004C214FF0B0417B681343C1F84C314FF049
:100C6000B043D3F84C217B681340FB60FB6800BFA6
:100C70001437BD465DF8047B704780B500AF02F0C5
:100C8000B9FC02F0BDFC4FF48030FFF7ADFF0CF073
:100C9000FFFF00F021F800F0C1F800BF80BD0000A8
:100CA000B0B588B000AF0B4B3C1D1D460FCD0FC437
:100CB00095E8070003C422800234130C23700CF063
:100CC0001BFF3B1D18460CF0A9F900BF2037BD469D
:100CD000B0BD00BFDCFC000880B588B000AF3B1D94
:100CE00000221A605A609A60DA601A610023BB839E
:100CF00000237B8300233B830023FB7736E0FB7FCD
:100D0000434ADB0013449B79002B2CD0FB7F404AE5
:100D100052F833303F4A93421BD03E4A934221D887
:100D2000B3F1904F03D03C4A934209D01AE0FB7FC5
:100D3000374ADB0013449A88BB8B1343BB8312E012
:100D4000FB7F334ADB0013449A887B8B13437B83FE
:100D500009E0FB7F2E4ADB0013449A883B8B134348
:100D60003B8300E000BFFB7F0133FB77FB7F252B3C
:100D7000C5D90023FB600123BB6003233B61BB8B10
:100D8000002B14D0BB8B7B600120FFF741FF0120BB
:100D9000FFF757FF3B1D19464FF0904003F064F9F1
:100DA000BB8B002219464FF0904003F0E5FA7B8B95
:100DB000002B12D07B8B7B600220FFF729FF0220E3
:100DC000FFF73FFF3B1D1946134803F04DF97B8B9E
:100DD00000221946104803F0CFFA3B8B002B13D0AA
:100DE0003B8B7B600420FFF713FF0420FFF729FFF4
:100DF0003B1D1946074803F037F93B8B0022194683
:100E0000044803F0B9FA00BF00BF2037BD4680BDDB
:100E100078080108000800480004004880B400AFCA
:100E200000BFBD465DF8047B704780B500AF01F0A0
:100E300051FD00BF80BD80B584B000AFF8600B46A7
:100E40007A607B817A897B68F968002001F088FBF1
:100E500000BF1037BD4680BD80B483B000AF78605E
:100E6000074BD3F8803023F0070205497B68134312
:100E7000C1F8803000BF0C37BD465DF8047B704779
:100E80000004005880B483B000AF7860064BD3F8FC
:100E9000902005497B681343C1F8903000BF0C37A0
:100EA000BD465DF8047B70470008005880B483B0ED
:100EB00000AF78604FF0B0430A4AC3F89C204FF06F
:100EC000B043D3F89C3023F47C527B681B024FF074
:100ED000B0411343C1F89C3000BF0C37BD465DF8EC
:100EE000047B7047FECAFECA80B483B000AF78604E
:100EF0004FF0B0439B6823F400424FF0B0417B6851
:100F000013438B6000BF0C37BD465DF8047B704710
:100F100080B400AF4FF0B043D3F890304FF0B04200
:100F200043F48033C2F8903000BFBD465DF8047BC7
:100F3000704780B400AF4FF0B043D3F890304FF01B
:100F4000B04223F48033C2F8903000BFBD465DF854
:100F5000047B704780B400AF4FF0B043D3F89430B7
:100F600003F08063B3F1806F01D1012300E000231F
:100F70001846BD465DF8047B704780B400AF4FF063
:100F8000B043D3F8943003F08053B3F1805F01D1C4
:100F9000012300E000231846BD465DF8047B70473E
:100FA00080B485B000AF78604FF0B0431A6D4FF059
:100FB000B0417B6813430B654FF0B0431A6D7B68FB
:100FC0001340FB60FB6800BF1437BD465DF8047B2F
:100FD0007047000080B400AF044B1B68C3F30B03E1
:100FE0001846BD465DF8047B704700BF002004E052
:100FF00080B400AF044B1B681B0C9BB21846BD4667
:101000005DF8047B704700BF002004E080B483B02B
:1010100000AF786039607B685A683B681B041A43EC
:101020007B685A6000BF0C37BD465DF8047B704793
:1010300080B483B000AF786039607B685A683B68E1
:101040001A437B685A6000BF0C37BD465DF8047BCD
:10105000704780B483B000AF786039607B685A69AC
:101060003B681B041A437B685A6100BF0C37BD46BE
:101070005DF8047B704780B483B000AF786039605E
:101080007B685A693B681A437B685A6100BF0C371A
:10109000BD465DF8047B704780B483B000AF7860D4
:1010A00039607B683A689A6000BF0C37BD465DF8CE
:1010B000047B704780B483B000AF786039607B6890
:1010C0003A689A6100BF0C37BD465DF8047B7047F3
:1010D00080B400AF054B1B69044A23F0040313617D
:1010E00000BFBD465DF8047B704700BF00ED00E027
:1010F00080B483B000AF78607B68FF225A6200BF83
:101100000C37BD465DF8047B704780B483B000AFF8
:1011100078607B68CA225A627B6853225A6200BF99
:101120000C37BD465DF8047B704780B483B000AFD8
:10113000786039607B689B6823F007023B681A433C
:101140007B689A6000BF0C37BD465DF8047B704732
:1011500080B500AF044B4FF400421A6100F030F844
:1011600000F070F800BF80BD0040005880B500AFAF
:1011700000F07CF800F094F80949002000F060FFCE
:10118000FFF77BFD012101200DF0F4FA00F0EAF9F0
:1011900000F0F8F900F088FA00F090F800BF80BD88
:1011A0000405002080B400AF00BFBD465DF8047B9D
:1011B000704780B500AF5020FFF764FE00BF80BDD0
:1011C00080B500AF00F004F800F01AF800BF80BD51
:1011D00080B500AFFFF7BEFE0346002B0DD0FFF732
:1011E000CCFE0346002B08D103F0D2FA03F0D0FA6C
:1011F000FFF78EFEFFF79DFE00BF00BF80BD000021
:1012000080B500AF4FF48010FFF7CAFE3F210C48B5
:10121000FFF742FF3F210A48FFF74CFF3F210848F4
:10122000FFF7F4FE3F210648FFF713FF3F21044874
:10123000FFF7FEFE3F210248FFF71DFF00BF80BD04
:10124000000C005880B582B000AF00200CF09EFD6D
:1012500078607B68002B05D07B689B791846FFF788
:1012600025FE00BF00BF0837BD4680BD80B500AF7A
:10127000FFF798FFFFF79DFF00F002F800BF80BD69
:1012800080B500AF0548FFF740FF00210348FFF796
:101290004CFF0248FFF72CFF00BF80BD0028004034
:1012A00080B500AF4FF40040FFF71EFE0DF050FA7E
:1012B0000420FFF7D1FD00BF80BD000080B588B0DD
:1012C00000AF0CF05FFA114A00214FF480300DF0AE
:1012D00003FC0F4B3B600F4B7B603B4619460E48AF
:1012E0000CF012F90D4BBB600D4BFB600D4B3B61DD
:1012F00040F23C537B6107F1080318460CF088FB71
:101300000CF03AFA00BF2037BD4680BD41D5000839
:101310003407032029130008411300084C09032057
:1013200040080320F801032080B483B000AF0346D7
:10133000FB7100BF0C37BD465DF8047B70470000B1
:1013400080B588B000AF78607B685B680B33FB6169
:10135000FB691B889BB2A3F51243072B60D801A23F
:1013600052F823F085130008C7130008D5130008AE
:1013700021140008F11300080114000809140008E2
:101380001914000807F10C0318460BF073FE3B7BA1
:1013900019467B7B1A46BB7B24480DF0BFFD3B7C86
:1013A000194623480DF0BAFDBB7D1946FB7D1A4650
:1013B0003B7E20480DF0B2FD1F480DF0AFFD786870
:1013C00000F070F82DE01D480DF0A8FD786800F0E1
:1013D00043F826E01A480DF009FEFB69023319684C
:1013E000FB6902335B681A4616480DF097FD18E05A
:1013F000FB6902331B68194613480DF08FFD10E09E
:1014000012480DF08BFD0CE0FB6902331B68194696
:101410000F480DF083FD04E00E480DF07FFD00E065
:1014200000BF00BF2037BD4680BD00BFF8FC0008EC
:101430001CFD000838FD000850FD000870FD000884
:1014400094FD0008E4FD00080CFE000848FE0008BA
:101450006CFE0008A8FE000880B584B000AF78607C
:101460007B685B680B33FB60FB680233BB60BB6867
:101470001B78194608480DF051FDBB681B78002BFE
:1014800003D106480DF0B2FD03E005480DF0AEFDB6
:1014900000BF1037BD4680BDCCFE0008FCFE000832
:1014A00038FF000880B58AB000AF786007F1080304
:1014B00000221A605A609A60DA6000237B6200237F
:1014C0003B627B685B680B33FB61FB690233BB618A
:1014D000BB691B78002B28D11D480DF087FDFFF755
:1014E000DFFB0F233B727F23BB72FFF781FD786226
:1014F000796A18480DF012FD7B6A9BB2BB82FFF738
:1015000069FD3862396A14480DF008FD3B6A9BB2E8
:10151000FB8207F1080318460BF097FD07F0C0FAAD
:10152000002101200DF026F90EE0BB691B78012B8C
:1015300006D10A480DF0F2FC7B6800221A7003E025
:1015400007480DF0EBFC00BF2837BD4680BD00BF4B
:1015500070FF00088CFF0008B0FF0008D0FF0008F3
:101560000400010880B500AF002001F043FE012017
:1015700001F040FE022001F03DFE012001F074FE6A
:1015800000BF80BD80B500AF0121002001F0A0FEAA
:101590000121012001F09CFE0121022001F098FEB2
:1015A00000BF80BD80B584B000AF786001F0FEFF61
:1015B000B8607B68FB60FB68B3F1FF3F0AD002F0C4
:1015C0000DF803461A46FB681344FB6002E0FFF780
:1015D0007FFD30BF01F0EAFF0246BB68D31AFA680C
:1015E0009A42F4D800BF00BF1037BD4680BD80B519
:1015F00000AF4FF0FF300DF0EDF800BF80BD80B4BC
:1016000000AF00BFBD465DF8047B704780B582B077
:1016100000AF786039604FF0FF300DF0DBF800BFAD
:101620000837BD4680BD80B582B000AF786000212C
:101630004FF480300DF072FA00BF0837BD4680BD10
:1016400080B582B000AF786002200DF0D3FA00BF01
:101650000837BD4680BD80B582B000AF78600220FB
:101660000DF008FB00BF0837BD4680BD80B582B0D5
:1016700000AF0346FB80FB88102B06D0102B0DDC3F
:10168000012B05D0022B06D008E007F0BFFE06E0D4
:1016900007F0CEFE03E007F0DDFE00E000BF00BF74
:1016A0000837BD4680BD000080B500AF034B012266
:1016B0000349002000F030FF00BF80BDC5160008C0
:1016C0001801002080B500AF154B1B88FF2B1ED8DA
:1016D000144B1B780D2B0FD1134914480DF01EFC31
:1016E00000F028F80E4B00221A804FF4807200217F
:1016F0000D480DF059FD0AE0094B1B885A1C91B2A8
:10170000074A11801A46074B1978074B9954084B22
:1017100001220449002000F0FFFE00BF80BD00BF91
:1017200020020020180100202001002038000108BC
:10173000C516000880B500AF28492948FEF720FDEE
:101740000346002B0CD127480DF050FC264B274AAE
:101750001A60254802F066FC254B01221A703AE017
:1017600024491F48FEF70CFD0346002B0DD12248EB
:101770000DF03CFC1C4B4FF0B0521A601A4802F0BE
:1017800051FC1B4B01221A7025E01C491448FEF73E
:10179000F7FC0346002B0CD119480DF027FC124B27
:1017A000184A1A60104802F03DFC114B01221A70D1
:1017B00011E015490A48FEF7E3FC0346002B06D169
:1017C00012480DF013FC124B01221A7003E0044979
:1017D00010480DF0A3FB00BF80BD00BF480001080A
:1017E000200100204C0001080C010020040000161C
:1017F000150100205400010858000108600001088C
:1018000064000108010000166C000108780001085E
:10181000140100208800010880B483B000AF786014
:10182000064BD3F8802005497B681343C1F880300C
:1018300000BF0C37BD465DF8047B704700080058B8
:1018400080B483B000AF7860054B1A6804497B68A8
:1018500013430B6000BF0C37BD465DF8047B704737
:101860000008005880B483B000AF0D4B9B6A9BB258
:101870007B600B4B9B6A9BB23B6005E03B687B60E7
:10188000074B9B6A9BB23B607A683B689A42F5D1F2
:101890003B6818460C37BD465DF8047B704700BFB7
:1018A0000028004080B485B000AF03460A46FB71B3
:1018B0001346BB71BA791D4913465B001344DB0024
:1018C0000B4415331B78FB73FB7B062B09D0FA7B8B
:1018D000164913465B001344DB000B441433FA79BA
:1018E0001A70FA79114913465B001344DB000B446C
:1018F0001533FA7B1A70FA790C4913465B001344CE
:10190000DB000B441433BA791A70BA7907491346CD
:101910005B001344DB000B441533FA791A7000BFE7
:101920001437BD465DF8047B704700BF24020020D9
:1019300080B485B000AF03460A46FB711346BB7105
:10194000294B1B78DBB2BA799A4232D0BA7927494F
:1019500013465B001344DB000B4414331B78FB730A
:10196000FA7B224913465B001344DB000B4415331A
:10197000FA791A70FA791D4913465B001344DB00AB
:101980000B441533BA791A70FA79184913465B007B
:101990001344DB000B441433FA7B1A70BA791349F1
:1019A00013465B001344DB000B441433FA791A70BE
:1019B00014E0FA790D4913465B001344DB000B4435
:1019C0001533BA791A70BA79084913465B00134483
:1019D000DB000B441433FA791A7000BF1437BD468C
:1019E0005DF8047B704700BFB40200202402002091
:1019F00080B584B000AF0346FB714E4B1B78DBB261
:101A0000062B18D14B4B1B78DAB24B4B1A70494A54
:101A1000FB791370FA79494913465B001344DB00E4
:101A20000B44153306221A70454B4FF0FF321A60F3
:101A30000023FB8178E000F009F90346FB81FA7985
:101A40003E4913465B001344DB000B44083319681E
:101A5000FB89FA791944394813465B001344DB00CB
:101A6000034408331960FA79344913465B00134480
:101A7000DB000B4408331B68BB602E4B1B78DBB2CA
:101A800019462E4A0B465B000B44DB001344083317
:101A90001B68BA689A4237D3264B1B787B737A7BD4
:101AA000264913465B001344DB000B4415331B78B7
:101AB0003B7313E07A7B214913465B001344DB0040
:101AC0000B4415331B787B737A7B1C4913465B00F0
:101AD0001344DB000B4415331B783B733B7B062B15
:101AE0000BD03A7B154913465B001344DB000B44D3
:101AF00008331B68BA689A42DCD27A7BFB791146BC
:101B00001846FFF7CFFE0FE00A4B1B78DAB2FB79DD
:101B100011461846FFF70CFF064B1B78DAB2064B4E
:101B20001A70044AFB791370FB8918461037BD46BA
:101B300080BD00BFB4020020B502002024020020B6
:101B4000B802002080B485B000AF03460A46FB719E
:101B50001346BB71394B1B78DBB2FA799A4211D12B
:101B6000364B1B78DAB2364B1A70FA793549134680
:101B70005B001344DB000B4415331B78DAB22F4BA8
:101B80001A703EE0FA792F4913465B001344DB00DC
:101B90000B4414331B78FB73FA792A4913465B0014
:101BA0001344DB000B4415331B78BB73F979FA7BC4
:101BB00024480B465B000B44DB00034415331B78C1
:101BC000D8B2204913465B001344DB000B441533A5
:101BD00002461A70BB7B062B13D0F979BA7B1948E1
:101BE0000B465B000B44DB00034414331B78D8B274
:101BF000144913465B001344DB000B4414330246C4
:101C00001A70FA790F4913465B001344DB000B444A
:101C10000C3301221A70094B1B78DBB2062B07D15B
:101C2000BB79002B04D1084B4FF0FF321A6000BF84
:101C300000BF1437BD465DF8047B7047B402002036
:101C4000B502002024020020B802002080B582B036
:101C500000AF1A4B1B68B3F1FF3F26D0FFF702FE1F
:101C60007860164B1B687A689A4205D8134B1A683D
:101C70007B68D31A7B600AE0114B1B881A467B688D
:101C8000D31A3B600D4B1B683A6813447B600D4BC5
:101C90001B781A467B6802FB03F37B600A4B1B78B8
:101CA0001A467B68D3407B6001E000237B607B6841
:101CB0009BB218460837BD4680BD00BFB802002061
:101CC000C0020020BE020020BD02002080B582B00C
:101CD00000AF0346FB80FB88002B08D1FFF7C2FD55
:101CE0000346214A1360032001F00DFE39E0FB8812
:101CF000012B03D81D4B1B78012B02D0FB88013B25
:101D0000FB8000BF1A4B1B68DB6803F00403002B49
:101D1000F8D0174B1B68DB68DAB2154B1B6862F40E
:101D20009062DA60134B4FF40022DA60032001F076
:101D3000F8FD114B5B691B0C1B04FA880E49134319
:101D40004B61FFF78FFD0346074A1360084B1B6882
:101D50009A68074B1B6842F480629A60AFF3008078
:101D600000BF0837BD4680BDB8020020BD0200207C
:101D700004050020000800580028004080B584B009
:101D800000AF454B9B6803F48063B3F5806F07D1C8
:101D900000BF424B1B68DB6803F00403002BF8D143
:101DA0003E4B1B689A683D4B1B6822F480629A6028
:101DB0003B4B1B78FB73FA7B3A4913465B00134499
:101DC000DB000B4408331B68BB60FFF73FFF034693
:101DD000FB80FB88BA689A4205D20023BB81324B54
:101DE00001221A704DE0FB88304A128892B21344E7
:101DF0001A46BB68934206D92C4B1B88BB812A4BE1
:101E000000221A703DE0BB689AB2FB88D31ABB81EE
:101E1000254B01221A7034E0FA7B224913465B00FD
:101E20001344DB000B4408331A68FB889A420AD239
:101E3000FA7B1C4913465B001344DB000B44083358
:101E400000221A6013E0FA7B164913465B00134424
:101E5000DB000B4408331968FB88FA7BC91A114868
:101E600013465B001344DB00034408331960FA7B1C
:101E70000C4913465B001344DB000B4415331B78FD
:101E8000FB73FB7B062BC7D1BB891846FFF71EFFF0
:101E900000BF1037BD4680BD00280040040500206B
:101EA000B402002024020020BC020020C202002054
:101EB00080B58AB000AFEFF310837B617B697B62F2
:101EC00072B600BF594B1B68CA225A62574B1B6837
:101ED00053225A62554B1B689A68544B1B6822F474
:101EE00080629A60524B1B7887F8233097F8232042
:101EF000504913465B001344DB000B440C331B7842
:101F0000DBB2022B6ED197F823204A4913465B00BF
:101F10001344DB000B441B68FB6197F82320454901
:101F200013465B001344DB000B4410331B68BB619A
:101F3000414B1B78DBB2002B4CD097F823203D4956
:101F400013465B001344DB000B440D331B78DBB2FC
:101F5000012B24D197F8233001211846FFF7F2FD19
:101F60007B6A3B613B6983F3108800BF97F82320AD
:101F7000304913465B001344DB000B4404331A68FA
:101F800097F823301146184600F032FA274B1B68A9
:101F9000CA225A62254B1B6853225A6212E07B6A9E
:101FA000FB60FB6883F3108800BF97F82330184666
:101FB00000F09AF91D4B1B68CA225A621B4B1B6822
:101FC00053225A6297F82330FA691946B86900F02B
:101FD00095FA22E0FFF7D2FE7B6ABB60BB6883F311
:101FE00010881AE000BF114B1B68DB6803F0040384
:101FF000002BF8D00D4B1B68DB68DAB20B4B1B686B
:1020000062F49062DA600D4B4FF40022DA607B6A72
:102010007B607B6883F3108800BF044B1B68FF2242
:102020005A6200BF2837BD4680BD00BF04050020AE
:10203000B402002024020020BC0200200008005846
:1020400080B588B000AF03463960FB715E4B1B68FA
:10205000CA225A625C4B1B6853225A625B4B9B68D4
:102060005A4A43F020039360584B9B68DBB203F05D
:102070000703DBB2C3F10403DAB2554B1A70534BBA
:102080001B6903F4FE034FF4FE023A613A6992FAC7
:10209000A2F2FA60FA687A617A69002A01D12022F4
:1020A00003E07A69B2FA82F2D2B2D340DBB20133F2
:1020B000DAB2484B1A70454B1B699BB2C3F30E034F
:1020C0009BB201339AB2444B1A80434B1B88013BAD
:1020D000404A127802FB03F3A3F5A0733C4A12783E
:1020E000D340BB61BB694FF6FE72934204D93B4BB0
:1020F0004FF6FF721A8003E0BB699AB2374B1A8021
:102100004FF40020FFF79CFB4FF40020FFF784FB07
:10211000FB79002B3DD1324B01221A70314B4FF02D
:10212000FF321A600023FB770CE0FA7F2E4913463A
:102130005B001344DB000B440C3300221A70FB7F5E
:102140000133FB77FB7F052BEFD9284B06221A7052
:102150001D4B1B689A681C4B1B6822F480629A60B6
:10216000194B1B68DB68DAB2174B1B6862F490628C
:10217000DA601F4B4FF40022DA60032001F0D1FB3C
:10218000114B1B689A68104B1B6842F480429A609E
:1021900009E00D4B1B68DB6803F48063002B02D061
:1021A000032001F0B0FB084B1B68FF225A6200229B
:1021B0000321032001F065FB032001F07CFB00BF3D
:1021C0002037BD4680BD00BF040500200028004028
:1021D000BD020020BE020020C0020020C20200207A
:1021E000BC020020B802002024020020B40200201B
:1021F0000008005880B48BB000AFF860B9603B6055
:102200001346FB71002387F82630EFF31083FB6140
:10221000FB693B6272B600BF04E097F826300133D9
:1022200087F8263097F82630052B0CD897F826200B
:102230002C4913465B001344DB000B440C331B7822
:10224000DBB2002BE9D197F82630062B38D097F86F
:102250002620244913465B001344DB000B440C3357
:1022600001221A703B6ABB61BB6983F3108800BF0F
:1022700097F826201B4913465B001344DB000B44F0
:102280001033FA681A6097F82620164913465B0047
:102290001344DB000B440D33FA791A7097F82620AB
:1022A000104913465B001344DB000B443A681A6084
:1022B000BB6897F826201A70002387F8273008E0BB
:1022C0003B6A7B617B6983F3108800BF012387F839
:1022D000273097F8273018462C37BD465DF8047B29
:1022E000704700BF2402002080B586B000AF0346CF
:1022F000FB71EFF31083FB60FB687B6172B600BF7C
:10230000032001F0E6FA344B1B68CA225A62324BB2
:102310001B6853225A62FA79304913465B00134412
:10232000DB000B440C331B78DBB2022B42D1FB7970
:1023300000211846FFF706FC294B1B78FB74FB7C39
:10234000062B2FD1274B9B6803F48063B3F5806F76
:1023500007D100BF204B1B68DB6803F00403002B90
:10236000F8D11D4B1B689A681B4B1B6822F48062D6
:102370009A6000BF184B1B68DB6803F00403002B56
:10238000F8D0154B1B68DB68DAB2134B1B6862F49C
:102390009062DA60144B4FF40022DA60032001F0FF
:1023A000C0FA07E0114B1B78DBB2FA7C9A4201D0ED
:1023B000FFF7E4FC084B1B68FF225A62032001F080
:1023C0007AFA7B69BB60BB6883F3108800BF00BFEB
:1023D0001837BD4680BD00BF040500202402002040
:1023E000B40200200028004000080058B502002078
:1023F00080B586B000AF03463960FB71FA793B497E
:1024000013465B001344DB000B440C331B78DBB238
:10241000022B03D1FB791846FFF766FFEFF3108319
:10242000FB60FB687B6172B600BF032001F051FACC
:102430002F4B1B68CA225A622D4B1B6853225A62CB
:10244000FA792A4913465B001344DB000B440C3332
:1024500002221A70FA79254913465B001344DB0007
:102460000B4408333A681A60FA79204913465B0036
:102470001344DB000B4404333A681A60FB791846B6
:10248000FFF7B6FA03467B821A4B1B787B741A4B14
:102490001B78DBB27A7C9A4202D0FFF76FFC13E024
:1024A000FA79124913465B001344DB000B440833EE
:1024B00019687B8AFA79C91A0C4813465B001344E1
:1024C000DB00034408331960094B1B68FF225A6282
:1024D000032001F0F0F97B69BB60BB6883F31088CF
:1024E00000BF00BF1837BD4680BD00BF24020020DA
:1024F00004050020B4020020B502002080B584B09D
:1025000000AFF8600B467A60FB727B68984700BFAB
:102510001037BD4680BD000080B584B000AFB96003
:102520007B600346FB731346BB81FB7B002B0CD106
:10253000084A7B681360084B084A1A60BB891A4630
:10254000B968054804F0A4F900E000BF00BF1037E7
:10255000BD4680BDC40200209C030020003801401D
:1025600080B586B000AFB9607B600346FB7313464D
:10257000BB810023FB750023BB75FB7B002B0ED1B9
:10258000174A7B681360174B174A1A60BB891A46B3
:10259000B968144804F0C8F90346FB7500E000BFB1
:1025A000FB7D032B16D801A252F823F0BD250008AD
:1025B000C3250008C9250008CF2500080023BB75E6
:1025C00009E00123BB7506E00223BB7503E003238A
:1025D000BB7500E000BFBB7D18461837BD4680BD07
:1025E000C80200209C0300200038014080B582B062
:1025F00000AF78607B681B681A46094B9A4207D186
:10260000084B1B68002B05D0064B1B68984701E060
:1026100000BF00E000BF00BF0837BD4680BD00BF5F
:1026200000380140C402002080B582B000AF78605D
:102630007B681B681A46094B9A4207D1084B1B68F6
:10264000002B05D0064B1B68984701E000BF00E057
:1026500000BF00BF0837BD4680BD00BF0038014045
:10266000C802002080B483B000AF78604FF0B04360
:10267000D3F8903023F018024FF0B0417B68134339
:10268000C1F8903000BF0C37BD465DF8047B704741
:1026900080B485B000AF78604FF0B0439A6C4FF0D3
:1026A000B0417B6813438B644FF0B0439A6C7B68F6
:1026B0001340FB60FB6800BF1437BD465DF8047B28
:1026C000704780B485B000AF78604FF0B043DA6CEB
:1026D0004FF0B0417B681343CB644FF0B043DA6CEA
:1026E0007B681340FB60FB6800BF1437BD465DF894
:1026F000047B704780B500AF00F0EAFEFEF728FDCE
:1027000000F016F800F072F800F0D0F800F09FF931
:1027100000F080F900F02CF900F048F900F030F9F1
:1027200000F084F8FEF722FDFEF761FFFCE70000F1
:1027300080B59AB000AF07F1200348220021184667
:102740000CF032FD3B1D00221A605A609A60DA607C
:102750001A615A619A6102F01BF80020FFF782FFAC
:10276000214B1B6823F4C0631F4A43F400731360BA
:102770001D4B1B6803F4C0633B603B6847233B620F
:102780004FF480337B620123BB624FF48073FB62A2
:102790000123BB6440233B630023FB6407F1200358
:1027A000184602F089FB0346002B01D000F05CF9CB
:1027B0006F237B600223BB600023FB6000233B612F
:1027C00000237B610023BB610023FB613B1D0121D2
:1027D000184602F0E5FE0346002B01D000F044F954
:1027E00000BF6837BD4680BD0004005880B594B076
:1027F00000AF3B465022002118460CF0D5FC4FF4A8
:1028000040533B604FF480437B640223BB6410233E
:10281000FB643B46184603F000FB0346002B01D047
:1028200000F022F900BF5037BD4680BD80B500AF33
:102830001B4B1C4A1A601A4B1B4A5A60184B002249
:102840009A60174B0122DA60154B00221A61144B73
:1028500000225A61124B00229A61114B0022DA6168
:102860000F4B00221A620E4801F0DAFD0346002BDE
:1028700001D000F0F9F80021094801F06CFE034690
:10288000002B01D000F0F0F80021054801F0AEFE69
:102890000346002B01D000F0E7F800BF80BD00BF69
:1028A0002805002000540040BB7C700080B500AFBC
:1028B000064B074A1A60054801F0E4FE0346002B68
:1028C00001D000F0D1F800BF80BD00BFCC020020D5
:1028D000000C005880B500AF234B244A1A60224BED
:1028E0004FF4E1325A60204B00229A601E4B0022C6
:1028F000DA601D4B00221A611B4B0C225A611A4BE5
:1029000000229A61184B4FF40042DA61164B002204
:102910001A62154B00225A62134B00229A62124827
:1029200003F066FF0346002B01D000F09DF8002164
:102930000D4805F0C6FF0346002B01D000F094F8C7
:102940000021094805F0FBFF0346002B01D000F0F1
:102950008BF8054805F07CFF0346002B01D000F002
:1029600083F800BF80BD00BF9C03002000380140F9
:1029700080B400AF00BFBD465DF8047B7047000027
:1029800080B500AF074B084A1A60064B00225A6018
:10299000044803F0C9FC0346002B01D000F064F8A2
:1029A00000BF80BDF00400200010005880B500AFCB
:1029B000164B174A1A60154B00225A60134B0F2210
:1029C0009A60124B47F6FF72DA60104B00221A61D0
:1029D0000E4B00229A610D4B0022DA610B4B002254
:1029E0005A610A4803F0D5FC0346002B01D000F0E1
:1029F0003BF800220021054803F0D8FD0346002BD8
:102A000001D000F031F800BF80BD00BF04050020F8
:102A10000028004080B500AF0420FFF739FE0120F8
:102A2000FFF736FE0220FFF733FE00220F210E20B3
:102A300000F027FF0E2000F03EFF00220F213A2079
:102A400000F01FFF3A2000F036FF00BF80BD80B5C8
:102A500000AF0420FFF735FE0120FFF732FE022011
:102A6000FFF72FFE00BF80BD80B400AF00BFBD46A2
:102A70005DF8047B704780B400AF4FF0B043D3F8EB
:102A800090304FF0B04243F40043C2F8903000BFA2
:102A9000BD465DF8047B704780B485B000AF7860B8
:102AA0004FF0B043DA6C4FF0B0417B681343CB6416
:102AB0004FF0B043DA6C7B681340FB60FB6800BFEB
:102AC0001437BD465DF8047B704780B485B000AF15
:102AD00078604FF0B0431A6D4FF0B0417B681343FC
:102AE0000B654FF0B0431A6D7B681340FB60FB68C9
:102AF00000BF1437BD465DF8047B704780B485B0D5
:102B000000AF78604FF0B0439A6D4FF0B0417B68F2
:102B100013438B654FF0B0439A6D7B681340FB60A5
:102B2000FB6800BF1437BD465DF8047B704780B476
:102B300085B000AF78604FF0B043DA6D4FF0B04130
:102B40007B681343CB654FF0B043DA6D7B6813406D
:102B5000FB60FB6800BF1437BD465DF8047B70471F
:102B600080B485B000AF78604FF0B0431A6E4FF07C
:102B7000B0417B6813430B664FF0B0431A6E7B681D
:102B80001340FB60FB6800BF1437BD465DF8047B53
:102B9000704780B500AF4FF40020FFF796FF00228A
:102BA00000212E2000F06DFE2E2000F084FE00BFDC
:102BB00080BD000080B582B000AF78607B681B6884
:102BC0000D4A934213D14FF48010FFF77EFF00228D
:102BD00000212C2000F055FE2C2000F06CFE00227D
:102BE00000212D2000F04DFE2D2000F064FE00BFDE
:102BF0000837BD4680BD00BF000C005880B5A0B0AE
:102C000000AF786007F16C0300221A605A609A6086
:102C1000DA601A6107F10C035022002118460CF00B
:102C2000C3FA7B681B68684A93426ED10223FB603B
:102C30000023BB6207F10C03184603F0EEF80346CD
:102C4000002B01D0FFF710FF0120FFF770FF0120DC
:102C5000FFF722FF0C23FB6602233B6700237B6701
:102C60000323BB670823FB6707F16C0319464FF08A
:102C7000904001F0F9F9554B554A1A60534B112217
:102C80005A60524B10229A60504B0022DA604F4B30
:102C900080221A614D4B00225A614C4B00229A61EE
:102CA0004A4B0022DA61494B00221A62474800F081
:102CB00047FE0346002B01D0FFF7D6FE4FF08853A6
:102CC000FB6500233B66002387F86430002387F808
:102CD00065300123BB6607F15C0319463B4801F0F0
:102CE00061F90346002B01D0FFF7BEFE7B68374A2F
:102CF000DA67364A7B68936200220021252000F0C3
:102D0000C0FD252000F0D7FD5AE07B681B68314AE2
:102D1000934255D10123FB6000237B6207F10C0332
:102D2000184603F07AF80346002B01D0FFF79CFE0B
:102D30004FF48040FFF714FF0220FFF7ADFEC023E1
:102D4000FB6602233B6701237B670323BB670723E3
:102D5000FB6707F16C0319461F4801F085F91F4B0B
:102D60001F4A1A601D4B0F225A601C4B10229A609A
:102D70001A4B0022DA60194B80221A61174B00228D
:102D80005A61164B00229A61144B0022DA61134BF0
:102D900000221A62114800F0D3FD0346002B01D037
:102DA000FFF762FE7B680D4ADA670C4A7B68936224
:102DB00000220021242000F064FD242000F07BFD8F
:102DC00000BF8037BD4680BD008000403004002039
:102DD00044000240003801400004004890040020F4
:102DE0004404024080B596B000AF786007F1080354
:102DF0005022002118460CF0D7F97B681B680D4A59
:102E0000934213D14FF40073BB604FF080533B6487
:102E100007F10803184603F000F80346002B01D021
:102E2000FFF722FE4FF48020FFF74FFE00BF583718
:102E3000BD4680BD0010005880B596B000AF7860E8
:102E400007F108035022002118460CF0ADF97B6809
:102E50001B68144A934220D14FF40063BB604FF4C7
:102E60008073BB6407F10803184602F0D6FF0346DF
:102E7000002B01D0FFF7F8FDFFF7FDFD4FF4806058
:102E8000FFF73CFE00220021032000F0FAFC0320A3
:102E900000F011FD786803F055FC00BF5837BD46BF
:102EA00080BD00BF0028004080B59CB000AF7860B6
:102EB00007F15C0300221A605A609A60DA601A61B6
:102EC00007F10C035022002118460CF06DF97B68C5
:102ED0001B68174A934226D10423FB604FF440330A
:102EE000FB6207F10C03184602F097FF0346002B24
:102EF00001D0FFF7B9FD0220FFF7CEFD4FF440737C
:102F0000FB6512233B6601237B660323BB66042318
:102F1000FB6607F15C031946064801F0A5F84FF47B
:102F20000010FFF7EBFD00BF7037BD4680BD00BF4E
:102F3000005400400004004880B400AF00BFBD460C
:102F40005DF8047B704780B400AF00BFFDE780B43C
:102F500000AF00BFFDE780B400AF00BFFDE780B465
:102F600000AF00BFFDE780B400AF00BFBD465DF815
:102F7000047B704780B400AF00BFBD465DF8047BA2
:102F8000704780B400AF00BFBD465DF8047B70475A
:102F900080B500AF00F0F6FA00BF80BD80B500AF8D
:102FA000FEF786FF00BF80BD80B500AF024800F08D
:102FB000A8FE00BF80BD00BF3004002080B500AF78
:102FC000024803F031FD00BF80BD00BF9C0300201C
:102FD00080B500AF024803F027FD00BF80BD00BFF1
:102FE0000803002080B500AF07F044FD00BF80BD9E
:102FF00080B500AF07F074FD00BF80BD80B500AFA5
:1030000001F0EAF900BF80BD80B500AF024800F0D2
:1030100078FE00BF80BD00BF9004002080B500AFE7
:10302000102001F0C1F900BF80BD80B500AF0120C4
:1030300001F0BAF900BF80BD80B500AF022001F0F9
:10304000B3F900BF80BD80B586B000AFF860B9604D
:103050007A6000237B610AE0AFF300800146BB6821
:103060005A1CBA60CAB21A707B6901337B617A69F3
:103070007B689A42F0DB7B6818461837BD4680BDF6
:1030800080B483B000AF78604FF0FF3318460C3740
:10309000BD465DF8047B704780B483B000AF7860B4
:1030A00039603B684FF400525A60002318460C37D1
:1030B000BD465DF8047B704780B483B000AF786094
:1030C000012318460C37BD465DF8047B704780B479
:1030D00085B000AFF860B9607A60002318461437F5
:1030E000BD465DF8047B704780B586B000AF786060
:1030F000144A154BD31A7B617B693B61134B1B68E8
:10310000002B02D1114B124A1A60104B1A687B68CF
:1031100013443A699A4207D20CF094F803460C2201
:103120001A604FF0FF3309E0084B1B68FB60074B48
:103130001A687B681344054A1360FB681846183701
:10314000BD4680BD00000320001000007C0500206B
:10315000101A0020D458C4500433C4188C42F9D338
:103160007047036004308842FBD370470C488546A3
:1031700000F038F90B480C490C4A0023FFF7EDFF2B
:103180000B480C490023FFF7EEFF0B480B490023C7
:10319000FFF7E9FF0CF05CF8FFF7ACFAFEE7000080
:1031A0000000032008000020A00000202C190108C6
:1031B000F0000020101A0020E4010320670A032019
:1031C000FEE780B485B000AF78604FF0B043DA6CB2
:1031D0004FF0B0417B681343CB644FF0B043DA6CDF
:1031E0007B681340FB60FB6800BF1437BD465DF889
:1031F000047B704780B588B000AF0346FB7107F1D0
:103200000C0300221A605A609A60DA601A61022088
:10321000FFF7D7FFFB79124A32F81330FB60012326
:103220003B6100237B610223BB61FB790D4A52F8AD
:10323000233007F10C021146184600F015FFFB7908
:10324000084A52F82300FB79054A32F8133000226D
:10325000194601F091F800BF2037BD4680BD00BF80
:10326000A80901080800002080B582B000AF03461D
:10327000FB71FB79074A52F82300FB79064A32F8C2
:1032800013300122194601F077F800BF0837BD4618
:1032900080BD00BF08000020A809010880B582B0E9
:1032A00000AF0346FB71FB79074A52F82300FB7914
:1032B000064A32F813300022194601F05DF800BFCB
:1032C0000837BD4680BD00BF08000020A8090108DE
:1032D00080B588B000AF03460A46FB711346BB7148
:1032E00007F10C0300221A605A609A60DA601A61D2
:1032F000FB79002B03D10420FFF763FF0CE0FB797F
:10330000012B03D10820FFF75CFF05E0FB79022BBE
:1033100002D10820FFF755FFBB79002B17D1FB79AD
:10332000204A32F81330FB6000233B6101237B61AC
:103330000223BB61FB791C4A52F8233007F10C02CF
:103340001146184600F090FE0120FEF72BF9BB79DC
:10335000012B23D1FB79134A32F81330FB60012390
:103360007B614FF404133B61FB790F4A52F8233021
:1033700007F10C021146184600F076FEFB790B4A65
:10338000D35C5BB200220F21184600F07AFAFB7979
:10339000064AD35C5BB2184600F08DFA00BF2037B6
:1033A000BD4680BDB009010814000020B80901081D
:1033B00080B582B000AF0346FB71FB79074A52F833
:1033C0002320FB79064931F813301946104600F0E6
:1033D000BBFF034618460837BD4680BD14000020D9
:1033E000B009010880B400AF264B00229A60254B3B
:1033F000D3F88830234A43F47003C2F888304FF082
:10340000B0431B684FF0B04243F0010313604FF02C
:10341000B0434FF4E0229A604FF0B0431A684FF087
:10342000B041194B13400B604FF0B043D3F89430C8
:103430004FF0B04223F00503C2F894304FF0B04390
:10344000D3F898304FF0B04223F00103C2F898301F
:103450004FF0B0430D4ADA604FF0B0430B4A1A61A7
:103460004FF0B0431B684FF0B04223F48023136049
:103470004FF0B04300229A6100BFBD465DF8047B67
:10348000704700BF00ED00E0FBFEF6FA00100422DA
:1034900080B400AF054B5B68044A43F001035360FE
:1034A00000BFBD465DF8047B704700BF002004E00C
:1034B00080B400AF054B5B68044A43F002035360DD
:1034C00000BFBD465DF8047B704700BF002004E0EC
:1034D00080B582B000AF0023FB710C4B1B680B4A18
:1034E00043F480731360032000F0C0F9002000F063
:1034F0000FF80346002B02D00123FB7101E0FFF718
:1035000048FBFB7918460837BD4680BD004000588F
:1035100080B584B000AF78600023FB73174B1B7835
:10352000002B24D002F0E8F90246144B1B78194610
:103530004FF47A73B3FBF1F3B2FBF3F3184600F0E8
:10354000D6F90346002B0FD17B680F2B09D8002238
:1035500079684FF0FF3000F094F9094A7B681360F6
:1035600007E00123FB7304E00123FB7301E0012367
:10357000FB73FB7B18461037BD4680BD280000203A
:103580002400002080B400AF064B1B781A46064B7F
:103590001B681344044A136000BFBD465DF8047BFA
:1035A000704700BF280000208005002080B400AFD5
:1035B000034B1B681846BD465DF8047B704700BF8F
:1035C0008005002080B400AF034B1B681846BD4641
:1035D0005DF8047B704700BF2400002080B400AF7A
:1035E000034B1B781846BD465DF8047B704700BF4F
:1035F0002800002080B500AFFFF74AFF00BF80BD64
:1036000080B500AFFFF754FF00BF80BD80B485B028
:1036100000AF78607B6803F00703FB600C4BDB684E
:10362000BB60BA684FF6FF031340BB60FB681A0229
:10363000BB68134343F0BF6343F40033BB60044AE9
:10364000BB68D36000BF1437BD465DF8047B70478C
:1036500000ED00E080B400AF044BDB681B0A03F010
:1036600007031846BD465DF8047B704700ED00E097
:1036700080B483B000AF0346FB7197F90730002B8D
:103680000BDBFB7903F01F02074997F907305B0951
:10369000012000FA02F241F8232000BF0C37BD469A
:1036A0005DF8047B704700BF00E100E080B483B0A8
:1036B00000AF0346FB7197F90730002B12DBFB7953
:1036C00003F01F020A4997F907305B09012000FA4D
:1036D00002F2203341F82320BFF34F8F00BFBFF326
:1036E0006F8F00BF00BF0C37BD465DF8047B70478D
:1036F00000E100E080B483B000AF0346FB7197F9AE
:103700000730002B0CDBFB7903F01F02074997F908
:1037100007305B09012000FA02F2403341F8232010
:1037200000BF0C37BD465DF8047B704700E100E048
:1037300080B483B000AF0346FB7197F90730002BCC
:103740000CDBFB7903F01F02074997F907305B098F
:10375000012000FA02F2603341F8232000BF0C3749
:10376000BD465DF8047B704700E100E080B483B0A3
:1037700000AF03463960FB7197F90730002B0ADB75
:103780003B68DAB20C4997F907301201D2B20B4408
:1037900083F800230AE03B68DAB20849FB7903F0BA
:1037A0000F03043B1201D2B20B441A7600BF0C3750
:1037B000BD465DF8047B704700E100E000ED00E0ED
:1037C00080B489B000AFF860B9607A60FB6803F03C
:1037D0000703FB61FB69C3F10703042B28BF042324
:1037E000BB61FB690433062B02D9FB69033B00E094
:1037F00000237B614FF0FF32BB6902FA03F3DA4327
:10380000BB681A407B699A404FF0FF317B6901FA2F
:1038100003F3D9437B680B40134318462437BD4656
:103820005DF8047B7047000080B582B000AF78601F
:103830007B68013BB3F1807F01D301230FE00A4A8B
:103840007B68013B53600F214FF0FF30FFF78EFF85
:10385000054B00229A60044B07221A600023184689
:103860000837BD4680BD00BF10E000E080B582B0E3
:1038700000AF78607868FFF7C9FE00BF0837BD4623
:1038800080BD80B586B000AF0346B9607A60FB7337
:10389000FFF7E0FE78617A68B9687869FFF790FF12
:1038A000024697F90F3011461846FFF75FFF00BF39
:1038B0001837BD4680BD80B582B000AF0346FB71AE
:1038C00097F907301846FFF7D3FE00BF0837BD460B
:1038D00080BD80B582B000AF0346FB7197F9073019
:1038E0001846FFF7E3FE00BF0837BD4680BD80B530
:1038F00082B000AF78607868FFF796FF03461846FD
:103900000837BD4680BD80B582B000AF0346FB716D
:1039100097F907301846FFF7EDFE00BF0837BD46A0
:1039200080BD80B582B000AF0346FB7197F90730C8
:103930001846FFF7FDFE00BF0837BD4680BD0000FA
:1039400080B584B000AF78607B68002B01D1012383
:103950008EE07B681B681A46474B9A420FD87B68FB
:103960001B681A46454B1344454AA2FB03231B0917
:103970009A007B685A647B68424A1A640EE07B684E
:103980001B681A46404B13443D4AA2FB03231B0904
:103990009A007B685A647B683C4A1A647B680222FE
:1039A00083F825207B681B681B68FB60FB6823F499
:1039B000FF4323F07003FB607B689A687B68DB68D9
:1039C0001A437B681B691A437B685B691A437B68EF
:1039D0009B691A437B68DB691A437B681B6A134344
:1039E000FA681343FB607B681B68FA681A607868A2
:1039F00000F074FA7B689B68B3F5804F02D17B6856
:103A000000225A607B685A687B689B6C02F03F0218
:103A10001A607B68DB6C7A68126D5A607B685B6841
:103A2000002B10D07B685B68042B0CD8786800F002
:103A300093FA7B685B6D00221A607B689B6D7A68E5
:103A4000D26D5A6008E07B6800225A657B680022CC
:103A50009A657B680022DA657B680022DA637B68FE
:103A6000012283F825207B68002283F8242000238C
:103A700018461037BD4680BD07040240F8FFFDBF61
:103A8000CDCCCCCC00000240F8FBFDBF00040240CE
:103A900080B586B000AFF860B9607A603B60002303
:103AA000FB75FB6893F82430012B01D1022366E0FB
:103AB000FB68012283F82420FB6893F82530DBB2F1
:103AC000012B55D1FB68022283F82520FB680022D8
:103AD000DA63FB681B681A68FB681B6822F0010246
:103AE0001A603B687A68B968F86800F0B9F9FB6851
:103AF0001B6B002B08D0FB681B681A68FB681B68EF
:103B000042F00E021A600FE0FB681B681A68FB683F
:103B10001B6822F004021A60FB681B681A68FB68C5
:103B20001B6842F00A021A60FB689B6C1B6803F476
:103B30008033002B07D0FB689B6C1A68FB689B6C7A
:103B400042F480721A60FB685B6D002B07D0FB6843
:103B50005B6D1A68FB685B6D42F480721A60FB68EB
:103B60001B681A68FB681B6842F001021A6005E0D6
:103B7000FB68002283F824200223FB75FB7D184696
:103B80001837BD4680BD80B483B000AF78607B68D5
:103B9000002B01D101234FE07B6893F82530DBB285
:103BA000022B08D07B680422DA637B68002283F84A
:103BB0002420012340E07B681B681A687B681B682F
:103BC00022F00E021A607B689B6C1A687B689B6C03
:103BD00022F480721A607B681B681A687B681B6815
:103BE00022F001021A607B685B6C03F01C027B68A8
:103BF0001B6C012101FA02F25A607B68DB6C7A6867
:103C0000126D5A607B685B6D002B0CD07B685B6D1E
:103C10001A687B685B6D22F480721A607B689B6D0A
:103C20007A68D26D5A607B68012283F825207B6810
:103C3000002283F82420002318460C37BD465DF887
:103C4000047B704780B584B000AF78600023FB73BD
:103C50007B6893F82530DBB2022B05D07B68042209
:103C6000DA630123FB7347E07B681B681A687B6893
:103C70001B6822F00E021A607B681B681A687B685A
:103C80001B6822F001021A607B689B6C1A687B68D3
:103C90009B6C22F480721A607B685B6C03F01C02E0
:103CA0007B681B6C012101FA02F25A607B68DB6CB5
:103CB0007A68126D5A607B685B6D002B0CD07B6854
:103CC0005B6D1A687B685B6D22F480721A607B689A
:103CD0009B6D7A68D26D5A607B68012283F825203B
:103CE0007B68002283F824207B689B6B002B03D029
:103CF0007B689B6B78689847FB7B18461037BD46FE
:103D000080BD80B584B000AF78607B681B6C1B6899
:103D1000FB607B681B681B68BB607B685B6C03F0A7
:103D20001C0304229A40FB681340002B26D0BB687A
:103D300003F00403002B21D07B681B681B6803F091
:103D40002003002B07D17B681B681A687B681B68FF
:103D500022F004021A607B685B6C03F01C027B6833
:103D60001B6C042101FA02F25A607B681B6B002B6A
:103D700071D07B681B6B786898476CE07B685B6CE4
:103D800003F01C0302229A40FB681340002B2ED044
:103D9000BB6803F00203002B29D07B681B681B68FB
:103DA00003F02003002B0BD17B681B681A687B682B
:103DB0001B6822F00A021A607B68012283F8252022
:103DC0007B685B6C03F01C027B681B6C022101FAB0
:103DD00002F25A607B68002283F824207B68DB6A49
:103DE000002B38D07B68DB6A7868984733E07B68C3
:103DF0005B6C03F01C0308229A40FB681340002B05
:103E00002AD0BB6803F00803002B25D07B681B6811
:103E10001A687B681B6822F00E021A607B685B6C74
:103E200003F01C027B681B6C012101FA02F25A604C
:103E30007B680122DA637B68012283F825207B6896
:103E4000002283F824207B685B6B002B04D07B6806
:103E50005B6B7868984700BF00BF1037BD4680BDD8
:103E600080B485B000AFF860B9607A603B60FB68F1
:103E7000DB6CFA68126D5A60FB685B6D002B04D036
:103E8000FB689B6DFA68D26D5A60FB685B6C03F04F
:103E90001C02FB681B6C012101FA02F25A60FB68EC
:103EA0001B683A685A60FB689B68102B08D1FB6856
:103EB0001B687A689A60FB681B68BA68DA6007E07A
:103EC000FB681B68BA689A60FB681B687A68DA60EE
:103ED00000BF1437BD465DF8047B704780B485B0E1
:103EE00000AF78607B681B681A46174B9A420AD865
:103EF0007B685B6C9B089B0003F1804303F50233F6
:103F00007A68936407E07B685B6C9B089A000F4BB0
:103F100013447A6893647B681B68DBB2083B0C4AE5
:103F2000A2FB03231B09FB607B680A4ADA64FB6877
:103F300003F01F0301229A407B681A6500BF143703
:103F4000BD465DF8047B7047070402401C08024030
:103F5000CDCCCCCC8008024080B485B000AF786076
:103F60007B685B6803F03F03FB60FA680B4B13440C
:103F70009B001A467B685A657B68094A9A65FB680C
:103F8000013B03F0030301229A407B68DA6500BF1E
:103F90001437BD465DF8047B704700BF3F820010B8
:103FA0004009024080B483B000AF786039607B681C
:103FB00093F82530DBB2012B2BD17B6893F82430AA
:103FC000012B01D1022325E07B68012283F8242004
:103FD0007B689B6C1A68124B13403A6811683A6808
:103FE000D268013AD20411433A68526811433A68E0
:103FF000127A120411433A68527A520211437A68D3
:10400000926C0B4313607B68002283F8242000230A
:1040100000E0012318460C37BD465DF8047B70476D
:10402000FFFD00E080B487B000AF78607B681B685C
:104030001B0C03F001037B617B681B6803F01F030B
:10404000012202FA03F33B617B695B0103F1B04398
:1040500003F60803FB60FB683A691A6000BF1C376F
:10406000BD465DF8047B704780B487B000AF7860D0
:10407000396000237B614CE13B681A6801217B6950
:1040800001FA03F31340FB60FB68002B00F03E8154
:104090003B685B6803F00303012B05D03B685B685A
:1040A00003F00303022B30D17B689B683B617B6983
:1040B0005B00032202FA03F3DB433A6913403B61DE
:1040C0003B68DA687B695B0002FA03F33A691343E1
:1040D0003B617B683A699A607B685B683B6101225F
:1040E0007B6902FA03F3DB433A6913403B613B68A7
:1040F0005B681B0903F001027B6902FA03F33A696A
:1041000013433B617B683A695A603B685B6803F024
:104110000303032B17D07B68DB683B617B695B0083
:10412000032202FA03F3DB433A6913403B613B6825
:104130009A687B695B0002FA03F33A6913433B61B7
:104140007B683A69DA603B685B6803F00303022B23
:1041500023D17B69DA087B68083253F822303B614F
:104160007B6903F007039B000F2202FA03F3DB4392
:104170003A6913403B613B681A697B6903F00703A6
:104180009B0002FA03F33A6913433B617B69DA0847
:104190007B680832396943F822107B681B683B61F1
:1041A0007B695B00032202FA03F3DB433A691340A5
:1041B0003B613B685B6803F003027B695B0002FACA
:1041C00003F33A6913433B617B683A691A603B68C1
:1041D0005B6803F44033002B00F09880544A7B69FD
:1041E0009B08023352F823303B617B6903F00303E1
:1041F0009B000F2202FA03F3DB433A6913403B6151
:104200007B68B3F1904F19D07B684A4A934213D030
:104210007B68494A93420DD07B68484A934207D055
:104220007B68474A934201D1042308E0072306E054
:10423000032304E0022302E0012300E000237A6963
:1042400002F00302920093403A6913433B613849FC
:104250007B699B0802333A6941F82320394B1B687C
:104260003B61FB68DB433A6913403B613B685B6839
:1042700003F48013002B03D03A69FB6813433B61BE
:10428000304A3B6913602F4B5B683B61FB68DB4343
:104290003A6913403B613B685B6803F40013002BF1
:1042A00003D03A69FB6813433B61264A3B6953607C
:1042B000244BD3F880303B61FB68DB433A69134001
:1042C0003B613B685B6803F48033002B03D03A69A1
:1042D000FB6813433B611B4A3B69C2F88030194BB2
:1042E000D3F884303B61FB68DB433A6913403B61A0
:1042F0003B685B6803F40033002B03D03A69FB682A
:1043000013433B610F4A3B69C2F884307B69013338
:104310007B613B681A687B6922FA03F3002B7FF408
:10432000ABAE00BF00BF1C37BD465DF8047B7047D5
:10433000000001400004004800080048000C00484C
:10434000001000480008005880B485B000AF7860C5
:104350000B467B807B681A697B881340002B02D058
:104360000123FB7301E00023FB73FB7B184614372A
:10437000BD465DF8047B704780B483B000AF7860C1
:104380000B467B8013467B707B78002B03D07A88AA
:104390007B689A6102E07A887B689A6200BF0C377A
:1043A000BD465DF8047B704780B582B000AF034620
:1043B000FB80084BDA68FB881340002B06D0054AC7
:1043C000FB88D360FB881846FDF750F900BF08371B
:1043D000BD4680BD0008005880B582B000AF0A4BD2
:1043E000DB687B60084B1A687B68DB430649134037
:1043F0000B60054A7B685360786800F007F800BFDF
:104400000837BD4680BD00BF0015005880B483B09A
:1044100000AF786000BF0C37BD465DF8047B704785
:1044200080B582B000AF78607B68002B01D101239A
:104430008DE07B6893F84130DBB2002B06D17B68BE
:10444000002283F840207868FEF72EFD7B68242246
:1044500083F841207B681B681A687B681B6822F020
:1044600001021A607B685A687B681B6822F07062E0
:104470001A617B681B689A687B681B6822F400429B
:104480009A607B68DB68012B07D17B689A687B6840
:104490001B6842F400429A6006E07B689A687B6879
:1044A0001B6842F404429A607B68DB68022B08D1E7
:1044B0007B681B685A687B681B6842F400625A601C
:1044C00007E07B681B685A687B681B6822F40062FF
:1044D0005A607B681B685B687A68126843F00073F7
:1044E00043F4004353607B681B68DA687B681B6891
:1044F00022F40042DA607B681A697B685B6942EAF1
:1045000003017B689B691A027B681B680A43DA60B7
:104510007B68D9697B681A6A7B681B680A431A60E2
:104520007B681B681A687B681B6842F001021A608E
:104530007B6800225A647B68202283F841207B68D4
:1045400000221A637B68002283F842200023184669
:104550000837BD4680BD80B483B000AF7860396055
:104560007B6893F84130DBB2202B38D17B6893F81D
:104570004030012B01D1022332E07B68012283F815
:1045800040207B68242283F841207B681B681A68DE
:104590007B681B6822F001021A607B681B681A683E
:1045A0007B681B6822F480521A607B681B6819685C
:1045B0007B681B683A680A431A607B681B681A6844
:1045C0007B681B6842F001021A607B68202283F836
:1045D00041207B68002283F84020002300E0022372
:1045E00018460C37BD465DF8047B704780B485B033
:1045F00000AF786039607B6893F84130DBB2202BE4
:1046000039D17B6893F84030012B01D1022333E08C
:104610007B68012283F840207B68242283F84120B4
:104620007B681B681A687B681B6822F001021A60AD
:104630007B681B681B68FB60FB6823F47063FB608E
:104640003B681B02FA681343FB607B681B68FA68CF
:104650001A607B681B681A687B681B6842F001025D
:104660001A607B68202283F841207B68002283F84F
:104670004020002300E0022318461437BD465DF8B1
:10468000047B704780B584B000AF78600023FB7373
:104690007B68002B1ED0134BBB607B6893F83830CF
:1046A000DBB2002B02D17868FEF784FAB86800F01C
:1046B0005BF8BB681B6843F00112BB681A6078683E
:1046C00000F02CF87B6800225A637B68012283F893
:1046D000382001E00123FB73FB7B18461037BD46F1
:1046E00080BD00BF000C005880B485B000AFF860FA
:1046F000B9601346FB7100BF1437BD465DF8047BFB
:10470000704780B485B000AFF860B9601346FB71A4
:1047100000BF1437BD465DF8047B704780B485B098
:1047200000AF78600023FB600FE07A68FB689B00B5
:1047300013440B4A5A607A68FB6806339B001344A3
:10474000084A5A60FB680133FB60FB68052BECD913
:1047500000BF00BF1437BD465DF8047B704700BF43
:10476000E94600080347000880B483B000AF7860D2
:104770007B6800221A607B684FF03F125A607B68AA
:104780003F229A6000BF0C37BD465DF8047B70473E
:1047900080B400AF054B1B68044A43F48073136078
:1047A00000BFBD465DF8047B704700BF00040058A1
:1047B00080B400AF044B1B6803F4C0631846BD46C9
:1047C0005DF8047B704700BF0004005880B400AF60
:1047D0004FF0B0431B6803F48013B3F5801F01D181
:1047E000012300E000231846BD465DF8047B7047B6
:1047F00080B400AF4FF0B0431B684FF0B04243F4B9
:104800008033136000BFBD465DF8047B704780B401
:1048100000AF4FF0B0431B684FF0B04223F4803339
:10482000136000BFBD465DF8047B704780B400AFE5
:104830004FF0B0431B6803F40033B3F5003F01D1E0
:10484000012300E000231846BD465DF8047B704755
:1048500080B400AF4FF0B0431B684FF0B04243F458
:104860008073136000BFBD465DF8047B704780B461
:1048700000AF4FF0B0431B684FF0B04223F4807399
:10488000136000BFBD465DF8047B704780B400AF85
:104890004FF0B0431B6803F48063B3F5806F01D120
:1048A000012300E000231846BD465DF8047B7047F5
:1048B00080B483B000AF78604FF0B0435B6823F002
:1048C000FE427B681B064FF0B04113434B6000BFB4
:1048D0000C37BD465DF8047B704780B400AF4FF0E5
:1048E000B043D3F898304FF0B04243F00103C2F820
:1048F000983000BFBD465DF8047B704780B400AFC0
:104900004FF0B043D3F898304FF0B04223F001039A
:10491000C2F8983000BFBD465DF8047B704780B494
:1049200000AF4FF0B043D3F8983003F00203022BEE
:1049300001D1012300E000231846BD465DF8047B49
:10494000704780B400AF4FF0B043D3F890304FF0D1
:10495000B04243F00103C2F8903000BFBD465DF89D
:10496000047B704780B400AF4FF0B043D3F8903071
:104970004FF0B04223F00103C2F8903000BFBD46B3
:104980005DF8047B704780B400AF4FF0B043D3F8BC
:1049900090304FF0B04243F00403C2F8903000BFB3
:1049A000BD465DF8047B704780B400AF4FF0B04364
:1049B000D3F890304FF0B04223F00403C2F89030A7
:1049C00000BFBD465DF8047B704780B400AF4FF078
:1049D000B043D3F8903003F00203022B01D101233E
:1049E00000E000231846BD465DF8047B704780B4A4
:1049F00000AF4FF0B043D3F894304FF0B04243F0E3
:104A00000103C2F8943000BFBD465DF8047B7047D7
:104A100080B400AF4FF0B043D3F894304FF0B042C1
:104A200023F00103C2F8943000BFBD465DF8047B5B
:104A3000704780B400AF4FF0B043D3F8943003F028
:104A40000203022B01D1012300E000231846BD46DA
:104A50005DF8047B704780B400AF4FF0B043D3F8EB
:104A600094304FF0B04243F00403C2F8943000BFDA
:104A7000BD465DF8047B704780B400AF4FF0B04393
:104A8000D3F894304FF0B04223F00403C2F89430CE
:104A900000BFBD465DF8047B704780B400AF4FF0A7
:104AA000B043D3F8943003F00803082B01D101235D
:104AB00000E000231846BD465DF8047B704780B4D3
:104AC00083B000AF78604FF0B043D3F8943023F454
:104AD00070627B681B024FF0B0411343C1F8943001
:104AE00000BF0C37BD465DF8047B704780B400AF53
:104AF0004FF0B0431B684FF0B04243F00103136026
:104B000000BFBD465DF8047B704780B400AF4FF036
:104B1000B0431B684FF0B04223F00103136000BFA5
:104B2000BD465DF8047B704780B400AF4FF0B043E2
:104B30001B6803F00203022B01D1012300E00023D4
:104B40001846BD465DF8047B704780B483B000AF63
:104B500078604FF0B0431B6823F0F0024FF0B04193
:104B60007B6813430B6000BF0C37BD465DF8047BC8
:104B7000704780B483B000AF4FF0B0431B6803F0C0
:104B8000F0037B607B68B02B01D9B0237B607B682E
:104B900018460C37BD465DF8047B704780B483B07F
:104BA00000AF78604FF0B0435B6823F47F427B68CE
:104BB0001B024FF0B04113434B6000BF0C37BD46A2
:104BC0005DF8047B704780B483B000AF78604FF02D
:104BD000B0439B6823F003024FF0B0417B6813435E
:104BE0008B6000BF0C37BD465DF8047B704780B416
:104BF00000AF4FF0B0439B6803F00C031846BD466E
:104C00005DF8047B704780B483B000AF78604FF0EC
:104C1000B0439B6823F0F0024FF0B0417B68134330
:104C20008B6000BF0C37BD465DF8047B704780B4D5
:104C300083B000AF78604FF0B043D3F8083123F071
:104C4000F0024FF0B0417B681343C1F8083100BF58
:104C50000C37BD465DF8047B704780B483B000AF6D
:104C600078604FF0B043D3F8083123F00F027B682F
:104C70001B094FF0B0411343C1F8083100BF0C3796
:104C8000BD465DF8047B704780B483B000AF7860A8
:104C90004FF0B0439B6823F4E0624FF0B0417B6873
:104CA00013438B6000BF0C37BD465DF8047B704733
:104CB00080B483B000AF78604FF0B0439B6823F4BA
:104CC00060524FF0B0417B6813438B6000BF0C37DC
:104CD000BD465DF8047B704780B400AF4FF0B04331
:104CE0009B6803F0F0031846BD465DF8047B7047EF
:104CF00080B400AF4FF0B043D3F808311B0103F08C
:104D0000F0031846BD465DF8047B704780B400AFE1
:104D10004FF0B0439B6803F4E0631846BD465DF86E
:104D2000047B704780B400AF4FF0B0439B6803F43E
:104D300060531846BD465DF8047B704780B400AFF1
:104D40004FF0B0431B684FF0B04243F080731360E4
:104D500000BFBD465DF8047B704780B400AF4FF0E4
:104D6000B0431B684FF0B04223F08073136000BF64
:104D7000BD465DF8047B704780B400AF4FF0B04390
:104D80001B6803F00073B3F1007F01D1012300E041
:104D900000231846BD465DF8047B704780B400AF21
:104DA0004FF0B043DB681B0A03F07F031846BD4693
:104DB0005DF8047B704780B400AF4FF0B043DB6810
:104DC00003F060431846BD465DF8047B704780B42D
:104DD00000AF4FF0B043DB6803F070031846BD46E8
:104DE0005DF8047B704780B400AF4FF0B043DB68E0
:104DF00003F003031846BD465DF8047B704780B49A
:104E000000AF4FF0B0439B6803F48033B3F5803FAD
:104E100001D1012300E000231846BD465DF8047B64
:104E2000704780B400AF4FF0B043D3F8083103F4BB
:104E30000033B3F5003F01D1012300E00023184601
:104E4000BD465DF8047B704780B400AF4FF0B043BF
:104E5000D3F8083103F48033B3F5803F01D1012347
:104E600000E000231846BD465DF8047B704780B41F
:104E700000AF4FF0B0439B6803F40033B3F5003F3D
:104E800001D1012300E000231846BD465DF8047BF4
:104E9000704780B400AF4FF0B0439B6803F48023A9
:104EA000B3F5802F01D1012300E000231846BD4651
:104EB0005DF8047B7047000090B58DB000AF78605E
:104EC0007B68002B01D1012363E37B681B6803F03F
:104ED0002003002B00F08D80FFF789FEF862FFF7BA
:104EE00082FFB862FB6A002B05D0FB6A0C2B47D10E
:104EF000BB6A012B44D17B68DB69002B01D1012304
:104F000047E37B685C6AFFF734FE03469C4214D992
:104F10007B685B6A184600F02FFD0346002B01D02A
:104F2000012336E37B685B6A1846FFF70EFE7B6859
:104F30001B6A1846FFF732FE13E07B685B6A18466F
:104F4000FFF703FE7B681B6A1846FFF727FE7B68A6
:104F50005B6A184600F010FD0346002B01D00123C8
:104F600017E300F0C9FC0346A44A1360A44B1B6876
:104F70001846FEF7CDFA0346002B39D0012308E38B
:104F80007B68DB69002B1ED0FFF7B0FDFEF70EFB40
:104F9000786208E0FEF70AFB02467B6AD31A022B0E
:104FA00001D90323F5E2FFF7BFFD0346002BF1D043
:104FB0007B685B6A1846FFF7C8FD7B681B6A18466A
:104FC000FFF7ECFD15E0FFF7A0FDFEF7EFFA7862C2
:104FD00008E0FEF7EBFA02467B6AD31A022B01D9EE
:104FE0000323D6E2FFF7A0FD0346002BF1D100E03A
:104FF00000BF7B681B6803F00103002B47D0FFF75D
:10500000F6FD3862FFF7EFFEF8613B6A082B05D02A
:105010003B6A0C2B08D1FB69032B05D17B685B68CD
:10502000002B34D10123B4E27B685B68B3F5803F89
:1050300002D1FFF7DDFB01E0FFF7E9FB7B685B686E
:10504000002B12D0FEF7B2FA786208E0FEF7AEFA53
:1050500002467B6AD31A642B01D9032399E2FFF736
:10506000E5FB0346002BF1D011E0FEF79FFA7862D2
:1050700008E0FEF79BFA02467B6AD31A642B01D93B
:10508000032386E2FFF7D2FB0346002BF1D17B68B6
:105090001B6803F00203002B4CD0FFF7A8FDB8619A
:1050A000FFF7A1FE7861BB69042B05D0BB690C2B0F
:1050B0000ED17B69022B0BD17B68DB68002B01D101
:1050C000012366E27B681B691846FFF7F1FB31E0BC
:1050D0007B68DB68002B19D0FFF7BAFBFEF766FA96
:1050E000786208E0FEF762FA02467B6AD31A022B66
:1050F00001D903234DE2FFF7C9FB0346002BF1D092
:105100007B681B691846FFF7D3FB13E0FFF7AFFB83
:10511000FEF74CFA786208E0FEF748FA02467B6A2E
:10512000D31A022B01D9032333E2FFF7AFFB034667
:10513000002BF1D17B681B6803F00803002B06D11C
:105140007B681B6803F01003002B00F0A3807B68D2
:105150005B69002B76D07B681B6803F01003002B83
:1051600046D0FFF766FC0346002B13D1FFF73FFC48
:10517000FEF71CFA786208E0FEF718FA02467B6A2E
:10518000D31A022B01D9032303E2FFF752FC034693
:10519000002BF1D0FFF75FFCFEF708FA786208E019
:1051A000FEF704FA02467B6AD31A032B01D90323C4
:1051B000EFE1FFF772FC0346002BF1D07B689B699F
:1051C0001846FFF77CFCFFF723FCFEF7EFF9786247
:1051D00008E0FEF7EBF902467B6AD31A022B01D9ED
:1051E0000323D6E1FFF725FC0346002BF1D151E064
:1051F000FFF7FDFBFEF7DAF978620CE020000020F3
:1052000024000020FEF7D2F902467B6AD31A022B53
:1052100001D90323BDE1FFF70CFC0346002BF1D0BD
:10522000FFF72AFC08E0FEF7C1F902467B6AD31AB1
:10523000032B01D90323ACE1FFF72FFC0346002B1E
:10524000F1D127E0FFF718FCFEF7B0F9786208E02B
:10525000FEF7ACF902467B6AD31A032B01D903236C
:1052600097E1FFF71AFC0346002BF1D1FFF7D0FBC3
:10527000FEF79CF9786208E0FEF798F902467B6A2F
:10528000D31A022B01D9032383E1FFF7D2FB034694
:10529000002BF1D17B681B6803F00403002B5BD06B
:1052A000A74B1B6803F48073002B14D1FFF770FA2F
:1052B000FEF77CF9786208E0FEF778F902467B6A2F
:1052C000D31A022B01D9032363E19D4B1B6803F41E
:1052D0008073002BF0D07B689B68012B02D1FFF715
:1052E00030FB0CE07B689B68052B04D1FFF74BFB80
:1052F000FFF727FB03E0FFF735FBFFF755FB7B6864
:105300009B68002B14D0FEF751F978620AE0FEF793
:105310004DF902467B6AD31A41F28832934201D991
:10532000032336E1FFF751FB0346002BEFD013E0D8
:10533000FEF73CF978620AE0FEF738F902467B6A2C
:10534000D31A41F28832934201D9032321E1FFF7B6
:105350003CFB0346002BEFD17B681B6803F0400346
:10536000002B2CD07B689B6A002B14D0FFF7B5FA7A
:10537000FEF71CF9786208E0FEF718F902467B6A2E
:10538000D31A022B01D9032303E1FFF7C8FA03461E
:10539000002BF1D013E0FFF7B1FAFEF707F97862BE
:1053A00008E0FEF703F902467B6AD31A022B01D903
:1053B0000323EEE0FFF7B3FA0346002BF1D17B683D
:1053C000DB6A002B00F0E480FFF711FC38614FF03E
:1053D000B043DB68FB607B68DB6A022B40F0B48083
:1053E000FB6803F003027B681B6B9A4223D1FB68C6
:1053F00003F070027B685B6B9A421CD1FB681B0A4E
:1054000003F07F027B689B6B9A4214D1FB6803F424
:1054100078127B68DB6B9A420DD1FB6803F0606207
:105420007B681B6C9A4206D1FB6803F060427B6884
:105430005B6C9A425DD03B690C2B58D04FF0B04367
:105440001B6803F08063002B01D00123A1E0FFF76C
:1054500084FCFEF7ABF8786208E0FEF7A7F8024696
:105460007B6AD31A022B01D9032392E04FF0B04399
:105470001B6803F00073002BEFD14FF0B043DA68E4
:10548000304B13407A68116B7A68526B11437A681B
:10549000926B120211437A68D26B11437A68126CD4
:1054A00011437A68526C0A434FF0B0411343CB600A
:1054B000FFF744FC4FF0B043DB684FF0B04243F0DD
:1054C0008053D360FEF772F8786208E0FEF76EF85A
:1054D00002467B6AD31A022B01D9032359E04FF00D
:1054E000B0431B6803F00073002BEFD050E00123A2
:1054F0004FE04FF0B0431B6803F00073002B47D11F
:10550000FFF71CFC4FF0B043DB684FF0B04243F0B4
:105510008053D360FEF74AF8786208E0FEF746F859
:1055200002467B6AD31A022B01D9032331E04FF0E4
:10553000B0431B6803F00073002BEFD028E000BFDE
:10554000000400588C80C1113B690C2B1ED0FFF762
:1055500004FCFEF72BF8786208E0FEF727F8024615
:105560007B6AD31A022B01D9032312E04FF0B04318
:105570001B6803F00073002BEFD14FF0B043DA68E3
:105580004FF0B041054B1340CB6001E0012300E038
:10559000002318463437BD4690BD00BFFCFFFEEE29
:1055A00080B584B000AF786039607B68002B01D192
:1055B00001232DE1984B1B6803F007033A689A42D8
:1055C0001BD9954B1B6823F0070293493B68134393
:1055D0000B60FDF7EBFFF86008E0FDF7E7FF024620
:1055E000FB68D31A022B01D9032311E18A4B1B68F4
:1055F00003F007033A689A42EFD17B681B6803F017
:105600000203002B16D07B689B681846FFF7FBFA55
:10561000FDF7CCFFF86008E0FDF7C8FF0246FB6825
:10562000D31A022B01D90323F2E0FFF7E8FB03466C
:10563000002BF1D07B681B6803F02003002B16D0F1
:105640007B685B691846FFF7F2FAFDF7AFFFF86079
:1056500008E0FDF7ABFF0246FB68D31A022B01D925
:105660000323D5E0FFF7DDFB0346002BF1D07B6879
:105670001B6803F04003002B16D07B689B6918461B
:10568000FFF7EBFAFDF792FFF86008E0FDF78EFFF9
:105690000246FB68D31A022B01D90323B8E0FFF7B7
:1056A000D3FB0346002BF1D07B681B6803F0040397
:1056B000002B16D07B68DB681846FFF7E5FAFDF78C
:1056C00075FFF86008E0FDF771FF0246FB68D31A2A
:1056D000022B01D903239BE0FFF7C9FB0346002BF4
:1056E000F1D07B681B6803F00803002B17D07B68A0
:1056F0001B69DB001846FFF7DBFAFDF757FFF86080
:1057000008E0FDF753FF0246FB68D31A022B01D9CC
:1057100003237DE0FFF7BDFB0346002BF1D07B6840
:105720001B6803F00103002B43D07B685B68022BEE
:1057300006D1FFF77BF80346002B1ED1012367E05B
:105740007B685B68032B06D1FFF716FB0346002B33
:1057500013D101235CE07B685B68002B06D1FFF767
:10576000E3F90346002B08D1012351E0FFF78EF83F
:105770000346002B01D101234AE07B685B68184691
:10578000FFF721FAFDF712FFF8600AE0FDF70EFFC0
:105790000246FB68D31A41F28832934201D90323AF
:1057A00036E0FFF724FA02467B685B689B009A426A
:1057B000ECD1194B1B6803F007033A689A421BD2DD
:1057C000154B1B6823F0070213493B6813430B601A
:1057D000FDF7ECFEF86008E0FDF7E8FE0246FB6826
:1057E000D31A022B01D9032312E00B4B1B6803F0E1
:1057F00007033A689A42EFD100F07EF80346074A61
:105800001360FDF7DFFE03461846FDF781FE0346F1
:1058100018461037BD4680BD0040005820000020CB
:1058200090B585B000AFFFF7E2F978607B68002B98
:105830000AD1FFF79EF903461B0903F00F032B4A19
:1058400052F82330FB604BE07B68042B02D1284BDD
:10585000FB6045E07B68082B0AD1FEF7B7FF0346E3
:10586000012B02D1224BFB603AE0224BFB6037E078
:10587000FFF7B9FA38603B68022B03D03B68032B73
:1058800003D00DE01A4BBB6015E0FEF79FFF034607
:10589000012B02D1164BBB600DE0164BBB600AE03A
:1058A000FFF767F903461B0903F00F030F4A52F88D
:1058B0002330BB6000BFFFF771FA0246BB6803FBF1
:1058C00002F4FFF784FA03461B090133B4FBF3F437
:1058D000FFF771FA03465B0F0133B4FBF3F3FB6090
:1058E000FB6818461437BD4690BD00BF1C0A01086E
:1058F0000024F4000048E80198B500AFFFF790FFDE
:105900000446FFF7E9F903461B0903F00F03034AB6
:1059100052F82330B4FBF3F3184698BDBC090108D4
:1059200098B500AFFFF7E8FF0446FFF7EFF903462D
:105930001B0A03F00703044A52F8233003F01F0345
:1059400024FA03F3184698BDFC09010898B500AF86
:10595000FFF7D2FF0446FFF7E5F90346DB0A03F041
:105960000703044A52F8233003F01F0324FA03F319
:10597000184698BDFC09010890B585B000AF786065
:105980007B68B02B03D9154BDB6AFB6007E07B68B3
:105990001B0903F00F03114A52F82330FB60FFF795
:1059A000A7F903461B0903F00F030D4A52F82330F1
:1059B000FA68B2FBF3F3BB60BB680A4AA2FB03239D
:1059C0009C0CFEF7F5FE03461946204600F00CF845
:1059D000034618461437BD4690BD00BF1C0A010897
:1059E000BC09010883DE1B4390B593B000AF78601B
:1059F0003960374B07F128040FCB84E80F00354A94
:105A000007F11C0307CA83E80700334B07F10C04B6
:105A10000FCB84E80F0000237B643B68B3F5007F65
:105A20001AD100233B6413E03B6C9B0048333B449A
:105A300053F8203C7A689A4207D83B6C9B00483365
:105A40003B4453F83C3C7B6420E03B6C01333B64BB
:105A50003B6C032BE8D919E00023FB6313E0FB6BDD
:105A60009B0048333B4453F82C3C7A689A4207D851
:105A7000FB6B9B0048333B4453F83C3C7B6405E0A4
:105A8000FB6B0133FB63FB6B022BE8D9134B1B68E9
:105A900023F0070211497B6C13430B60FDF786FD71
:105AA000B86308E0FDF782FD0246BB6BD31A022BF8
:105AB00001D9032307E0094B1B6803F007037A6C45
:105AC0009A42EFD1002318464C37BD4690BD00BF27
:105AD000A8000108B8000108C400010800400058EF
